:100000000C94D5350C9406360C9406360C940636B2
:100010000C9406360C9406360C9406360C94063670
:100020000C9406360C9406360C9406360C94063660
:100030000C9406360D94826C0C9406360C9406369D
:100040000C9406360C94B5F50C9406360C940636D2
:100050000C9406360C9406360D946B0D0D948F653A
:100060000C9406360C949B400C9406360C94063681
:100070000C9406360C9406360C9406360C94063610
:100080000C9406360C9406360C9406360C94063600
:100090000C9406360C9406360C9406360C940636F0
:1000A0000C9406360C9406360C9406360C940636E0
:1000B0000C9406360C9406360C9406360C940636D0
:1000C0000C9406360C9406360C9406360C940636C0
:1000D0000C9406360C9406360C9406360C940636B0
:1000E0000C9406364501230159010501F70067010B
:1000F000EB00F3003B013D011F01ED00D500630162
:10010000410131011501F9002D011101D300130145
:100110004D012701D9005D0121011701F5005B01A7
:100120002B01DD003F01D9002501E1006D010B012C
:100130005701FF004F013301F10009010301DF0006
:1001400039012901E90069011901F1000F01E300FA
:10015000CF00084AD73B3BCE016E84BCBFFDC12F08
:100160003D6C74319ABD56833DDA3D00C77F11BEA8
:10017000D9E4BB4C3E916BAAAABE000000803F05AB
:10018000A84CCDB2D44EB93836A9020C50B99186DC
:1001900088083CA6AAAA2ABE000000803F000D9451
:1001A000BE670D945A680D94D5660D94323B0D943C
:1001B00057390D9467670D94F7200D9435670D94AA
:1001C0009A670D9453670D94BA670D9444370D9454
:1001D0009B380D94A8670D94460E0D94183B0D9412
:1001E00068130D94C3670D944A0E0D9412670D9415
:1001F0001D0E0D94B13B0D949F3A0D9487350D94CF
:100200007B670D940C610D9494670D94030E0D940F
:10021000662D0D9490670D9489670D94202F0D9491
:10022000B6670D94D0660D94DA660D94A73B0D94D5
:1002300008670D94B0670D9492380D94EA110D94EF
:10024000580E0D9400670D94D80D0D9449670D94C8
:10025000EE660D94A2670D9426670D94CB3B0D942A
:10026000AD380D949D3B0D9485670D94951D0D94AF
:1002700072510D949E670D944C0E0D94500E0D947A
:100280003F670D946E3B0D94EF5B0D94C90D0D947B
:10029000A4380D94B7470D94EF4A0D94E4660D947D
:1002A0007F670D940D150D9432150D9483160D94E2
:1002B0008C670D94F40D0D941C670D94F8660D94E5
:1002C0003E150D9410450D944F3B0D945B2A0D94F3
:1002D0002C0E0D94AC670D94A91B0D945D674861BD
:1002E0007264636F6465642044656661756C742034
:1002F00053657474696E6773204C6F616465640044
:1003000053746F7265642073657474696E677320CB
:100310007265747269657665640046696C616D65C5
:100320006E742073657474696E67733A20446973E0
:1003300061626C6564002020204D32303020440022
:1003400046696C616D656E742073657474696E675F
:10035000733A002020204D3230392053004175740B
:100360006F2D526574726163743A20533D3020746E
:100370006F2064697361626C652C203120746F207A
:10038000696E7465727072657420657874727564D4
:10039000652D6F6E6C79206D6F76657320617320AB
:1003A0007265747261637473206F72207265636F1B
:1003B000766572696573002046002020204D32303A
:1003C000382053005265636F7665723A20533D457D
:1003D00078747261206C656E67746820286D6D2971
:1003E00020463A537065656420286D6D2F6D290095
:1003F000205A002046002020204D32303720530064
:10040000526574726163743A20533D4C656E677433
:100410006820286D6D2920463A5370656564202850
:100420006D6D2F6D29205A3A205A4C696674202828
:100430006D6D29002044002049002020204D3330DC
:10044000312050005049442073657474696E67739D
:100450003A00205A0020590020204D3230362058D2
:1004600000486F6D65206F666673657420286D6D3A
:10047000293A00204500205A002059002058002029
:10048000420020540020204D32303520530041647A
:1004900076616E636564207661726961626C657312
:1004A0003A20533D4D696E206665656472617465DE
:1004B00020286D6D2F73292C20543D4D696E2074BA
:1004C000726176656C20666565647261746520286A
:1004D0006D6D2F73292C20423D6D696E696D756DB0
:1004E000207365676D656E742074696D6520286D75
:1004F00073292C20583D6D6178696D756D205859B0
:10050000206A65726B20286D6D2F73292C20205A6C
:100510003D6D6178696D756D205A206A65726B203A
:10052000286D6D2F73292C2020453D6D6178696DF4
:10053000756D2045206A65726B20286D6D2F7329BB
:100540000020540020204D3230342053004163639A
:10055000656C65726174696F6E3A20533D616363C7
:10056000656C65726174696F6E2C20543D726574A0
:100570007261637420616363656C65726174696F35
:100580006E00204500205A0020590020204D3230B6
:10059000312058004D6178696D756D204163636548
:1005A0006C65726174696F6E20286D6D2F733229CE
:1005B0003A00204500205A0020590020204D3230BA
:1005C000332058004D6178696D756D2066656564EE
:1005D000726174657320286D6D2F73293A00204570
:1005E00000205A0020590020204D39322058005355
:1005F000746570732070657220756E69743A00536B
:10060000657474696E67732053746F726564002239
:10061000004D3232302053256900203A2000004C32
:10062000414E472053454C20464F524345440022FB
:1006300000205A3A0020593A0020453A00205A3A00
:100640000020593A00583A0020002E0020423A007B
:1006500020453A00543A0020573A0020453A0054C9
:100660003A002042403A0020403A00202F003A0051
:10067000205400202F0020423A00202F006F6B20D2
:10068000543A002569206D696E2C20256920736518
:1006900063004D65736820626564206C6576656CE7
:1006A000696E67206E6F74206163746976652E00D1
:1006B0000A002020000A4D65617375726564207020
:1006C0006F696E74733A000A5A20736561726368C9
:1006D000206865696768743A20002C004E756D20AB
:1006E000582C593A2000206D6963726F6E73004573
:1006F000786365737369766520626564206C6576DE
:10070000656C696E6720636F7272656374696F6E82
:100710003A2000473238205730000A00205A3A2049
:100720000020593A200020583A2000256920686F9F
:10073000757273202569206D696E75746573005438
:10074000494D454F55543A004D313130004D323905
:10075000002055706C6F616420696E2070726F6745
:100760007265737300466163746F727920524553EA
:100770004554004D6172203232203230313700430F
:100780006F6D70696C65643A2000286E6F6E652C21
:100790002064656661756C7420636F6E6669672995
:1007A000004D617220323220323031372031343AFC
:1007B00035383A3333007374617274002500202099
:1007C00020202020002020202020200045524153BE
:1007D000494E4720616C6C2064617461004661631E
:1007E000746F727920524553455400222066616926
:1007F0006C65643A204275666665722066756C6C3D
:100800002100456E717565696E6720746F2074688C
:10081000652066726F6E743A2022002200456E7168
:100820007565696E6720746F207468652066726FE5
:100830006E743A20220022206661696C65643A2059
:100840004275666665722066756C6C21002200FF39
:10085000FFFF0000A0400000A0400000004000009A
:100860007A43333354439AD95E4300000000CDCC21
:100870000CC09A99193E00007A43000052430000D0
:100880005F4300000000CDCC0CC09A99193E65630F
:10089000686F3A004572726F723A00000021104290
:1008A0002063308440A550C660E770088129914AD2
:1008B000A16BB18CC1ADD1CEE1EFF1311210027359
:1008C000325222B5529442F772D662399318837B22
:1008D000B35AA3BDD39CC3FFF3DEE36224433420A9
:1008E000040114E664C774A44485546AA54BB52872
:1008F000850995EEE5CFF5ACC58DD5533672261139
:10090000163006D776F6669556B4465BB77AA719C1
:10091000973887DFF7FEE79DD7BCC7C448E5588600
:1009200068A7784008611802282338CCC9EDD98E11
:10093000E9AFF9488969990AA92BB9F55AD44AB798
:100940007A966A711A500A333A122AFDDBDCCBBF61
:10095000FB9EEB799B588B3BBB1AABA66C877CE468
:100960004CC55C222C033C600C411CAEED8FFDECB1
:10097000CDCDDD2AAD0BBD688D499D977EB66ED578
:100980005EF44E133E322E511E700E9FFFBEEFDD01
:10099000DFFCCF1BBF3AAF599F788F8891A981CADE
:1009A000B1EBA10CD12DC14EF16FE18010A100C2BD
:1009B00030E3200450254046706760B9839893FB6C
:1009C000A3DAB33DC31CD37FE35EF3B1029012F30D
:1009D00022D2323542145277625672EAB5CBA5A8BC
:1009E0009589856EF54FE52CD50DC5E234C324A05D
:1009F0001481046674476424540544DBA7FAB7994C
:100A000087B8975FE77EF71DC73CD7D326F23691AC
:100A100006B01657667676154634564CD96DC90E13
:100A2000F92FE9C899E9898AB9ABA94458654806FC
:100A3000782768C018E1088238A3287DCB5CDB3FAB
:100A4000EB1EFBF98BD89BBBAB9ABB754A545A374C
:100A50006A167AF10AD01AB32A923A2EFD0FED6C7B
:100A6000DD4DCDAABD8BADE89DC98D267C076C649C
:100A70005C454CA23C832CE01CC10C1FEF3EFF5D8B
:100A8000CF7CDF9BAFBABFD98FF89F176E367E55EC
:100A90004E745E932EB23ED10EF01E7C3C3E5E2B19
:100AA0003D3F2F5B5D3B2C2A225C004D38342058A3
:100AB0002059205A2045004D3234004D3233202534
:100AC00073006175746F25692E67000A002F000A94
:100AD000002E0044656C6574696F6E206661696CF8
:100AE00065642C2046696C653A200046696C652077
:100AF00064656C657465643A002E002E002E002E2D
:100B0000004E6F772066726573682066696C653A7F
:100B100020004E6F7720646F696E672066696C6590
:100B20003A20002220706F73002220706172656E7F
:100B3000743A2200535542524F5554494E45204372
:100B4000414C4C207461726765743A22007472796A
:100B5000696E6720746F2063616C6C207375622D01
:100B600067636F64652066696C6573207769746874
:100B700020746F6F206D616E79206C6576656C7383
:100B80002E204D4158206C6576656C2069733A00C3
:100B9000465720334450726F20676F746F7761003F
:100BA000465720334450726F206C6973746100465D
:100BB0005720334450726F70726F6E74612E00460E
:100BC0005720334450726F206F6B004657203344D8
:100BD00050726F2072656164792E007A5F6D696E64
:100BE0003A20007A5F6D61783A20005A204F66669D
:100BF00073657400795F6D696E3A2000795F6D618D
:100C0000783A200054616B00536900536900416ECB
:100C10006F0059657300785F6D696E3A2000785FE8
:100C20006D61783A2000205761746368646F6720B3
:100C3000526573657400496E666F726D61636A65B3
:100C4000004D6F6E69746F72697A617200536368E8
:100C500065726D61746120696E666F00496E666FC2
:100C6000726D61636500496E666F207363726565BE
:100C70006E004F637A656B6977616E6965206E619E
:100C800020777963686C6F647A656E696520647932
:100C9000737A79206920706F646B6C61646B692E64
:100CA000004573706572616E646F20656E6672696F
:100CB000616D69656E746F206465206C612063618D
:100CC0006D6120792064656C206578747275736F2E
:100CD000722E00496E206174746573612064656CC6
:100CE000207261666672656464616D656E746F2002
:100CF00064656C6C612074657374696E6120652035
:100D000064656C2070696174746F2E0043656B615B
:100D10006E69206E61207A63686C61646E757469B7
:100D200020747279736B79206120706F646C6F7AB4
:100D30006B792E0057616974696E6720666F722047
:100D40006E6F7A7A6C6520616E64206265642063E0
:100D50006F6F6C696E67004573706572616E646F6A
:100D6000206F7264656E657300417474656E6465AE
:100D70006E646F207574656E7465005761697420C8
:100D8000666F7220757365722E2E2E0057796A6118
:100D9000632066696C616D656E7400536163617296
:100DA0002066696C616D656E746F00536361726972
:100DB00063612066696C616D656E746F0056796A57
:100DC0006D6F75742066696C616D656E7400556E2B
:100DD0006C6F61642066696C616D656E7400577933
:100DE000737577616D2066696C616D656E74005313
:100DF0006F6C74616E646F2066696C616D656E7492
:100E00006F0052696C6173632E2066696C616D6559
:100E10006E746F005679736F7576616D2066696CBC
:100E2000616D656E7400556E6C6F6164696E6720EC
:100E300066696C616D656E7400556E6B6E6F776E72
:100E400020636F6D6D616E643A2022004E61737491
:100E5000726F696300416A757374617200526567ED
:100E60006F6C61004C616469740054756E65006B51
:100E7000617274612053445B466C73684169725DB2
:100E80000053442063617264205B466C736841695F
:100E9000725D006B61727461205344205B6E6F72EF
:100EA0006D616C5D0053442063617264205B6E6F02
:100EB000726D616C5D0054656D7065726174757200
:100EC000610054656D70657261747572610054657E
:100ED0006D7065726174757261005465706C6F74C9
:100EE000610054656D706572617475726500506F54
:100EF0006D6F6300506F64706F7261005375707036
:100F00006F7274005A6174727A796D6163206472D1
:100F1000756B00446574656E657220696D707265ED
:100F200073696F6E004172726573746120737461CE
:100F30006D7061005A6173746176697420746973AD
:100F40006B0053746F70207072696E740050415260
:100F50004144410041525245535441544F2E005395
:100F6000544F505045442E20005374657072617484
:100F70006520746F6F20686967683A2000437A6162
:100F8000732063616C6B6F77697479203A005469E0
:100F9000656D706F20746F74616C203A0054656DDC
:100FA000706F207374616D706120746F743A0043C8
:100FB000656C6B6F767920636173203A00546F74AF
:100FC000616C207072696E742074696D65203A00DE
:100FD00046696C616D656E74206C61637A6E6965DB
:100FE000203A0046696C616D656E746F20746F7491
:100FF000616C3A0046696C616D656E746F20746F48
:10100000743A0046696C616D656E742063656C6B43
:10101000656D203A00546F74616C2066696C616D77
:10102000656E74203A00437A6173206472756B7543
:10103000203A2020005469656D706F206465206936
:101040006D702E3A0054656D706F20646920737462
:10105000616D70613A00436173207469736B752030
:101060003A2020005072696E742074696D653A20D0
:10107000200046696C616D656E74203A2020004640
:10108000696C616D656E746F203A20200046696C52
:10109000616D656E746F20757361746F3A00466997
:1010A0006C616D656E74203A20200046696C616D3C
:1010B000656E7420757365643A2020005374617402
:1010C000797374796B61202000457374616469736E
:1010D0007469636120200053746174697374696377
:1010E00068650053746174697374696B61202000D2
:1010F000537461746973746963732020004572725C
:101100006F72202D20737461746963206D656D6F3B
:10111000727920686173206265656E206F766572F2
:101120007772697474656E00507265646B6F736377
:101130000056656C6F63696461640056656C6F632B
:1011400069746100527963686C6F737400537065E1
:1011500065640020536F6674776172652052657311
:101160006574004D6F64202020202020205B63697F
:101170006368795D004D6F646F2020205B73696C3C
:10118000656E63696F5D004D6F646F205B73696CA2
:10119000656E7A696F736F5D004D6F64202020204B
:1011A0002020205B74696368795D004D6F64652061
:1011B000202020205B73696C656E745D004D6F6448
:1011C000205B7720777964616A6E6F73635D004D91
:1011D0006F646F205B6D617320667565727A615D07
:1011E000004D6F6465205B666F7274655D004D6FC6
:1011F0006420205B7679732E2076796B6F6E5D00AC
:101200004D6F6465205B6869676820706F776572F1
:101210005D00506F6B617A206B72616E636F776BEC
:101220006900456E73656E6120746F706520666934
:101230006E616C00537461746F2066696E65636FD4
:101240007273610053746176206B6F6E632E20732E
:1012500070696E2E0053686F7720656E642073741A
:101260006F707300557374617769656E69610041D1
:101270006A7573746500496D706F7374617A696F14
:101280006E69004E6173746176656E6900536574B2
:1012900074696E677300426C616420706F6C616387
:1012A0007A656E6961004572726F722064652063B1
:1012B0006F6E6578696F6E004572726F726520633C
:1012C00061626C616767696F004368796261207A67
:1012D00061706F6A656E6900576972696E67206533
:1012E00072726F72004175746F74657374207361EC
:1012F0006C696461004176766961206175746F7410
:101300006573740053656C66207465737420737420
:10131000617274202000536B6F6E74726F6C756A0B
:10132000203A00436F6E74726F6C61203A0056650C
:1013300072696669636172653A005A6B6F6E7472A6
:101340006F6C756A7465203A00506C656173652036
:10135000636865636B203A004175746F74657374DC
:10136000204F4B0053656C662074657374204F4B9F
:10137000004E696520706F646C61637A6F6E6F20D8
:101380002020004E6F2068617920636F6E65786958
:101390006F6E2020004E6F6E20636F6E6E657373EC
:1013A0006F004E657A61706F6A656E6F2020202035
:1013B000004E6F7420636F6E6E65637465640053D6
:1013C000696C6E696B004D6F746F7265004D6F7460
:1013D0006F720043616C656E742E2F5465726D6977
:1013E00073746F720052697363616C642E2F54655D
:1013F000726D6973742E004865617465722F54684C
:1014000065726D6973746F72004B726563692073E6
:1014100069650056656E74696C61646F72206769F6
:101420007261004769726100546F636920736500DF
:101430005370696E6E696E67004E656B72656369A5
:10144000207369650056656E74696C61646F722003
:101450006E6F2067697261004E6F6E20736920673E
:10146000697261004E65746F6369207365004E6F29
:1014700074207370696E6E696E67005465737420B2
:1014800077656E74796C61746F7261005465737402
:101490002064656C2076656E74696C61646F72009F
:1014A00050726F76612064656C2076656E74696C2D
:1014B00061746F7200546573742076656E74696C24
:1014C00061746F72750046616E20746573740053A9
:1014D000656C6674657374206E69657564616E7998
:1014E000004175746F746573742066616C6C61641F
:1014F0006F004175746F746573742066616C6C69FC
:10150000746F0053656C66746573742073656C68E2
:10151000616C20200053656C66746573742066618D
:10152000696C65642020004C6577792077656E745E
:10153000206E61206479737A653F0056656E742E63
:1015400020656E206C6120697A673F0056656E7475
:101550002053582073756C6C277567656C6C6F3FF2
:10156000004C6576792076656E74206E6120747209
:10157000797363653F004C65667420686F74656EAF
:10158000642066616E3F004175746F7465737420EA
:101590006572726F7221004175746F746573742087
:1015A0006E6567617469766F0053656C6674657308
:1015B00074206572726F72202100546F706520660E
:1015C000696E2E206E6F20746F632E0046696E6503
:1015D000632E2066756F726920706F722E00456EE3
:1015E0006473746F70206E6F742068697400546F38
:1015F0007065732066696E616C0046696E65636F25
:101600007273612028322900456E6473746F7073A1
:1016100000546F70652066696E616C0046696E6586
:10162000636F72736100456E6473746F7000507203
:101630007A6F646E692077656E742E206472756BA4
:10164000753F0056656E742E20616C206672656E63
:1016500074653F0056656E74206469207374616D13
:10166000706120616E742E3F00507265646E692057
:101670007469736B6F76792076656E743F0046727D
:101680006F6E74207072696E742066616E3F004BDD
:101690006F6E74726F6C61205A20617869732020BC
:1016A00000436F6E74726F6C2064656C20656A65B0
:1016B000205A0056657269666963612061737365BB
:1016C000205A004B6F6E74726F6C61205A206178E3
:1016D0006973202000436865636B696E67205A2038
:1016E000617869732020004B6F6E74726F6C61209B
:1016F000592061786973202000436F6E74726F6C9B
:101700002064656C20656A652059005665726966BB
:1017100069636120617373652059004B6F6E747249
:101720006F6C6120592061786973202000436865DF
:10173000636B696E67205920617869732020004BC4
:101740006F6E74726F6C612058206178697320200D
:1017500000436F6E74726F6C2064656C20656A65FF
:10176000205800566572696669636120617373650C
:101770002058004B6F6E74726F6C61205820617836
:101780006973202000436865636B696E6720582089
:10179000617869732020004B6F6E74726F6C6120EA
:1017A000686F74656E64202000436F6E74726F6C96
:1017B00020686F74656E642000566572696669639F
:1017C00061207567656C6C6F004B6F6E74726F6C27
:1017D0006120686F74656E64202000436865636BE8
:1017E000696E6720686F74656E642020004B6F6EB1
:1017F00074726F6C6120656E6473746F70730043F4
:101800006F6E742E20746F7065732066696E616CE4
:101810000056657269666963612066696E65636F0B
:10182000727361004B6F6E74726F6C6120656E64D1
:1018300073746F707300436865636B696E672065CE
:101840006E6473746F7073004B6F6E74726F6C6143
:1018500020626564202020202000436F6E74726F28
:101860006C2064652063616D61005665726966690C
:101870006361206C6574746F004B6F6E74726F6C73
:101880006120626564202020202000436865636B2E
:10189000696E672062656420202020200057737ADB
:1018A0007973746B6F204F4B202020202020005430
:1018B0006F646F2062696520004E657373756E20DA
:1018C0006572726F726500567365204F4B20202041
:1018D000202020202020202000416C6C20636F728B
:1018E000726563742020202020200043616D612FE9
:1018F00043616C656E7461646F72004C6574746FE3
:101900002F52697363616C642E00426564202F203E
:10191000486561746572004175746F746573740015
:101920004175746F746573740053656C6674657388
:101930007420202020202020202000577269746904
:101940006E6720746F2066696C653A2000766F6C54
:10195000756D652E696E6974206661696C656400D9
:101960002053697A653A20004B617274612077795F
:101970006A657461005461726A657461207265748D
:1019800069726164610053442072696D6F737361A1
:10199000004B617274612076796A6D7574610043E1
:1019A0006172642072656D6F7665640053442070C7
:1019B00072696E74696E67206279746520006F7059
:1019C000656E206661696C65642C2046696C653AB9
:1019D00020006F70656E526F6F74206661696C6570
:1019E00064004B6172746120776C6F7A6F6E610076
:1019F0005461726A65746120636F6C6F63616461C6
:101A000000534420696E736572697461004B6172A2
:101A1000746120766C6F7A656E6100436172642038
:101A2000696E73657274656400534420696E6974ED
:101A3000206661696C0046696C652073656C65633E
:101A40007465640046696C65206F70656E65643A04
:101A500020006572726F722077726974696E6720F8
:101A6000746F2066696C6500534420636172642062
:101A70006F6B0043616E6E6F74206F70656E2073C4
:101A800075626469720043616E6E6F7420656E7476
:101A90006572207375626469723A2000577A6E6FBE
:101AA0007769656E6965206472756B750052657340
:101AB000756D69656E646F20696D7072652E005278
:101AC000697072656E6469207374616D7061004F36
:101AD000626E6F76656E69207469736B750052650E
:101AE00073756D696E67207072696E74004B6F6EEE
:101AF00074796E756F776163005265616E756461AC
:101B00007220696D707265732E0052697072656E15
:101B10006469207374616D706100506F6B726163F2
:101B20006F76617400526573756D65207072696EB1
:101B30007400526573656E643A2000686F77746F45
:101B40002E707275736133642E637A00686F7774D8
:101B50006F2E707275736133642E637A00686F77CD
:101B6000746F2E707275736133642E636F6D0066CF
:101B70006F72756D2E707275736133642E637A00A7
:101B8000666F72756D2E707275736133642E637A31
:101B900000666F72756D2E707275736133642E639B
:101BA0006F6D00707275736133642E637A007072AA
:101BB00075736133642E637A007072757361336478
:101BC0002E636F6D004472756B2070727A65727748
:101BD000616E79005374616D70612061626F72741F
:101BE000697461005469736B2070726572757365F6
:101BF0006E005072696E742061626F727465640069
:101C00004E616369736E696A2070727A7963697371
:101C10006B00792070756C736520656C206D616E4A
:101C2000646F006520636C696363617265206D6138
:101C30006E6F706F6C61006120737469736B6E6599
:101C4000746520746C616369746B6F00616E6420ED
:101C5000707265737320746865206B6E6F62004EDE
:101C60006167727A656A206479737A6521005072BF
:101C70006563616C2E206578747275736F722100D4
:101C80005072657269732E207567656C6C6F2100E8
:101C900050726564656872656A74652074727973E0
:101CA0006B752100507265686561742074686520E9
:101CB0006E6F7A7A6C65210047727A616E69650091
:101CC00050726563616C656E74617200507265720A
:101CD000697363616C646100507265646568726504
:101CE00076005072656865617400506F7765725553
:101CF000700050726F737A6520637A656B61630060
:101D00004573706572610041737065747461005051
:101D1000726F73696D2063656B656A746500506CE2
:101D2000656173652077616974002020506C616E75
:101D30006E657242756666657242797465733A20A3
:101D40000050727A6572776163206472756B00501F
:101D5000617573617220696D70726573696F6E0071
:101D60004D6574746920696E2070617573610050EF
:101D70006F7A61737461766974207469736B005053
:101D800061757365207072696E7400556D69737446
:101D9000657465206C697374207061706972752058
:101DA0006E6120706F646C6F7A6B75206120756452
:101DB000727A756A7465206A656A20706F6420742F
:101DC0007279736B6F7520626568656D206D6572E1
:101DD000656E69207072766E696368203420626F68
:101DE00064752E20506F6B756420747279736B610B
:101DF000207A6163687974692070617069722C203F
:101E00007679706E657465207469736B61726E7536
:101E10002E00506C616365206120736865657420D5
:101E20006F6620706170657220756E6465722074D3
:101E30006865206E6F7A7A6C6520647572696E676A
:101E4000207468652063616C6962726174696F6E89
:101E5000206F66206669727374203420706F696E1B
:101E600074732E20496620746865206E6F7A7A6CD0
:101E700065206361746368657320746865207061B0
:101E80007065722C20706F776572206F66662074A3
:101E90006865207072696E74657220696D6D656425
:101EA000696174656C792E006F6B004F6666005334
:101EB000696E206D6F76696D69656E746F004E6531
:101EC0007373756E206D6F76696D656E746F2E001D
:101ED0004E6F206D6F76652E004272616B206B61D4
:101EE000727479205344004E6F20686179207461C8
:101EF000726A657461205344004E657373756E6138
:101F0000205344005A61646E61205344206B617217
:101F10007461004E6F205344206361726400447901
:101F2000737A61004675736F72005567656C6C6FEC
:101F300000547279736B61004E6F7A7A6C6500425F
:101F400072616B2066696C616D656E7475004669BF
:101F50006C2E206E6F206361726761646F0046694A
:101F60006C2E206E6F6E20636172696361746F0006
:101F700046696C616D656E74206E657A6176656424
:101F8000656E0046696C616D656E74206E6F7420BD
:101F90006C6F61646564004B6F6C6F72207A616E68
:101FA0006965637A79737A2E00436F6C6F72206E65
:101FB0006F20636C61726F00436F6C6F7265206E8F
:101FC0006F6E207075726F004261727661206E656F
:101FD0006E6920636973746100436F6C6F72206E69
:101FE0006F7420636C656172004E6965004E650018
:101FF0004E6F0050726F737A65207A616B747561F1
:102000006C697A6F7761630041637475616C697A9A
:10201000617220706F72206661766F720050726517
:10202000676120616767696F726E612E0050726F21
:1020300073696D20616B7475616C697A756A74651A
:102040002E00506C65617365207570677261646500
:102050002E005779737A6C61206E6F7761207765F7
:1020600072736A61206669726D776172653A004EBB
:102070007565766F206669726D7761726520646937
:1020800073706F6E69626C653A004E756F76612091
:1020900076657273696F6E652064656C206669721F
:1020A0006D7761726520646973706F6E6962696CC7
:1020B00065005679736C61206E6F7661207665726B
:1020C0007A65206669726D776172653A004E657750
:1020D000206669726D776172652076657273696FCB
:1020E0006E20617661696C61626C653A0050727A4B
:1020F0006573756E6163205A004D6F766572205A64
:10210000004D756F7669205A00506F73756E6F754C
:1021100074205A004D6F7665205A0050727A6573AC
:10212000756E61632059004D6F7665722059004DC0
:10213000756F7669205900506F73756E6F757420D6
:1021400059004D6F766520590050727A6573756E2F
:1021500061632058004D6F7665722058004D756F91
:102160007669205800506F73756E6F757420580033
:102170004D6F76652058004578747275736F7200E4
:102180004D756F7669204573747275736F72650053
:102190004578747275646572004B616C6962726136
:1021A000636A61205A2E2050727A656B72656320D3
:1021B00067616C6B652C206162792070727A65733F
:1021C000756E6163206F73205A20646F20676F7291
:1021D0006E796368206B72616E636F77656B2E201A
:1021E0004E616369736E696A2C20627920706F7426
:1021F00077696572647A69632E0043616C69627203
:10220000616E646F205A2E204769726120656C20D0
:10221000626F746F6E207061726120737562697293
:1022200020656C20636172726F205A20686173743C
:102230006120676F6C7065207069657A61732073C7
:1022400075706572696F7261732E20446573707565
:1022500065732068617A20636C69632E0043616C4A
:10226000696272617A696F6E65205A2E2052756FAD
:1022700074617265206C61206D616E6F706F6C614E
:102280002070657220616C7A61726520696C2063D0
:10229000617272656C6C6F205A2066696E6F206186
:1022A0006C6C27616C74657A7A61206D61737369F7
:1022B0006D612E20436C69636B20706572207465BC
:1022C000726D696E6172652E004B616C696272613C
:1022D0006365205A2E204F746163656E696D2074AA
:1022E0006C616369746B6120706F73756E746520C7
:1022F0005A206F737520617A206B7E686F726E69E9
:102300006D7520646F72617A752E20506F747672CD
:1023100064746520746C616369746B656D2E004331
:10232000616C6962726174696E67205A2E20526F07
:102330007461746520746865206B6E6F6220746FC1
:10234000206D6F766520746865205A206361727213
:102350006961676520757020746F207468652065F9
:102360006E642073746F70706572732E20436C6995
:10237000636B207768656E20646F6E652E004B611D
:102380006C69627261636A612058595A2E205072DA
:102390007A656B7265632067616C6B652C20616286
:1023A000792070727A6573756E6163206F73205A3D
:1023B00020646F20676F726E796368206B72616E44
:1023C000636F77656B2E204E616369736E696A2C4B
:1023D00020627920706F7477696572647A69632E00
:1023E0000043616C696272616E646F2058595A2EA5
:1023F000204769726120656C20626F746F6E207077
:1024000061726120737562697220656C206361720C
:10241000726F205A20686173746120676F6C7065F9
:10242000207069657A6173207375706572696F7267
:1024300061732E20446573707565732068617A201E
:10244000636C69632E0043616C696272617A696FC3
:102450006E652058595A2E2052756F74617265202E
:102460006C61206D616E6F706F6C612070657220A1
:10247000616C7A61726520696C2063617272656C4F
:102480006C6F205A2066696E6F20616C6C27616CDE
:1024900074657A7A61206D617373696D612E204372
:1024A0006C69636B20706572207465726D696E6112
:1024B00072652E004B616C696272616365205859C8
:1024C0005A2E204F746163656E696D20746C616370
:1024D00069746B6120706F73756E7465205A206F1C
:1024E000737520617A206B7E686F726E696D7520DE
:1024F000646F72617A752E20506F747672647465A1
:1025000020746C616369746B656D2E0043616C6946
:1025100062726174696E672058595A2E20526F7426
:1025200061746520746865206B6E6F6220746F2023
:102530006D6F766520746865205A206361727269D8
:1025400061676520757020746F2074686520656E02
:10255000642073746F70706572732E20436C6963AE
:102560006B207768656E20646F6E652E0052756310
:1025700068206F7369004D6F76657220656A6573B8
:10258000004D756F7669206173736500506F7375C8
:102590006E6F7574206F7375004D6F76652061786E
:1025A0006973004D657368206C6976656C2E206CCC
:1025B0006574746F004D65736820426564204C65D6
:1025C00076656C696E67004B616C69627261636A03
:1025D000610043616C6962726163696F6E0043619F
:1025E0006C696272617A696F6E65004B616C6962D9
:1025F000726163650043616C6962726174696F6ED8
:1026000000207A203900206465203900207375206D
:102610003900207A203900206F662039004F6B7214
:1026200065736C616D207779736F6B6F7363206F67
:10263000646E69657369656E69612070756E6B742F
:1026400075206B616C6962726163796A6E65676F30
:10265000004D65646972206C6120616C74757261F3
:102660002064656C2070756E746F206465206C61E9
:102670002063616C6962726163696F6E004D69739A
:102680007572617265206C27616C74657A7A61205D
:102690006469207269666572696D656E746F206425
:1026A000656C2070756E746F2064692063616C695D
:1026B0006272617A696F6E65004D6572696D207234
:1026C00065666572656E636E69207679736B7520D9
:1026D0006B616C69627261636E69686F20626F64BE
:1026E00075004D6561737572696E67207265666508
:1026F00072656E636520686569676874206F66201F
:1027000063616C6962726174696F6E20706F696E6B
:1027100074004D656E7520676C6F776E65004D6552
:102720006E75207072696E636970616C004D656EC4
:1027300075207072696E636970616C6500486C61C8
:10274000766E69206E616269646B61004D61696ECD
:10275000004D32323120496E76616C6964206578B3
:1027600074727564657220004D32313820496E767E
:10277000616C696420657874727564657220004DBF
:1027800032303020496E76616C69642065787472ED
:102790007564657220005265706F7274696E67208F
:1027A000656E6473746F7020737461747573004622
:1027B00049524D574152455F4E414D453A4D617228
:1027C0006C696E2056312E302E323B205370726968
:1027D0006E7465722F6772626C206D6173687570BC
:1027E00020666F722067656E36204649524D57410C
:1027F00052455F55524C3A68747470733A2F2F6784
:1028000069746875622E636F6D2F707275736133B2
:10281000642F50727573612D69332D506C75732F51
:102820002050524F544F434F4C5F56455253494FDF
:102830004E3A312E30204D414348494E455F545960
:1028400050453A465720334450726F2045585452F1
:10285000554445525F434F554E543A3120555549E2
:10286000443A30303030303030302D303030302D50
:10287000303030302D303030302D3030303030305E
:102880003030303030300A004D31303920496E76EA
:10289000616C696420657874727564657220004D9E
:1028A00031303520496E76616C69642065787472C8
:1028B0007564657220004D31303420496E76616C4C
:1028C000696420657874727564657220004B6F6C62
:1028D0006F207061736F776500506F6C6561207356
:1028E00075656C74610050756C6567676961206C13
:1028F000656E74610055766F6C6E656E61207265F1
:102900006D656E69636B61004C6F6F7365207075E8
:102910006C6C6579005770726F7761647A206669B4
:102920006C616D656E7400506F6E65722066696CC7
:10293000616D656E746F00436172696361206669E1
:102940006C616D656E746F005A6176657374206694
:10295000696C616D656E74004C6F61642066696CB2
:10296000616D656E74005770726F772E2066696CAA
:10297000616D656E74750043617267616E646F208E
:1029800066696C2E004361726963616E646F2066D4
:10299000696C616D2E005A61766164656E692066AE
:1029A000696C616D656E7475004C6F6164696E670A
:1029B0002066696C616D656E7400437A79737A6321
:1029C0007A2E206B6F6C6F72750043617267616E57
:1029D000646F20636F6C6F72004361726963616E34
:1029E000646F20636F6C6F72650043697374656E0A
:1029F00069206261727679004C6F6164696E67204C
:102A0000636F6C6F72005779626F72206A657A79B2
:102A10006B610043616D626961206C61206C656E61
:102A2000677561200053656C657A696F6E61206C13
:102A3000696E677561005679626572206A617A799C
:102A40006B610053656C656374206C616E677561C2
:102A5000676500506F6C736B6900457370616E6FD2
:102A60006C004974616C69616E6F004365737469D1
:102A70006E6100456E676C69736800504152414455
:102A80004120444520454D4552472E00494E205493
:102A9000494C542E004B494C4C45442E2000496E65
:102AA00076616C696420657874727564657200572C
:102AB00070726F7761647A2066696C616D656E749F
:102AC00000496E73657274612066696C616D656E34
:102AD000746F00496E7365726972652066696C6116
:102AE0006D656E746F00566C6F7A74652066696CE4
:102AF000616D656E7400496E736572742066696CF1
:102B0000616D656E7400207A20390020646520397B
:102B100000207375203900207A203900206F66204C
:102B20003900506F7072617769616D2070726563F2
:102B3000797A796A6E6F73632070756E6B74752025
:102B40006B616C6962726163796A6E65676F004D73
:102B5000656A6F72616E646F2063616D612070756C
:102B60006E746F2064652063616C69627261636971
:102B70006F6E0050657266657A696F6E2E20696CA3
:102B8000206C6574746F2070756E746F206469209A
:102B900063616C696272617A2E005A6C657073753C
:102BA0006A6920707265736E6F7374206B616C69F3
:102BB000627261636E69686F20626F647500496D4F
:102BC00070726F76696E67206265642063616C69FC
:102BD00062726174696F6E20706F696E74004B6110
:102BE0006C696272756A65205A0043616C69627231
:102BF000616E646F205A0043616C696272616E6439
:102C00006F205A004B616C696272756A69205A00C4
:102C100043616C6962726174696E67205A004B612E
:102C20006C69627261636A61204F4B0043616C6939
:102C300062726163696F6E204F4B0043616C696221
:102C400072617A696F6E65204F4B004B616C6962EF
:102C500072616365204F4B0043616C6962726174FD
:102C6000696F6E20646F6E65004B616C696272758E
:102C70006A205A0043616C6962726172205A004393
:102C8000616C69627261205A004B616C6962726F9B
:102C9000766174205A0043616C69627261746520C8
:102CA0005A0047727A616E6965204F4B2E0043616E
:102CB0006C656E74616E646F206C6973746F2E0046
:102CC00052697363616C642E20636F6D706C657400
:102CD0006F005A6168726976616E69204F4B2E00F1
:102CE00048656174696E6720646F6E652E00477277
:102CF0007A616E69652E2E2E0043616C656E74617B
:102D00006E646F2E2E2E0052697363616C64616D68
:102D1000656E746F2E2E2E005A6168726976616E30
:102D2000690048656174696E6700204672656520B8
:102D30004D656D6F72793A20004472756B61726BEC
:102D400061206E6965207A6F7374616C61206A65B9
:102D5000737A637A6520736B616C6962726F7761F5
:102D60006E612E2050726F737A65206B6965726F89
:102D70007761632073696520696E737472756B6324
:102D80006A612C20726F7A647A69616C205A61637F
:102D90007A796E616D792C20706F64726F7A647AC3
:102DA00069616C2053656C66746573742E00496D9F
:102DB000707265736F7261206E6F2065737461202D
:102DC00063616C69627261646120746F64617669C9
:102DD000612E20506F72206661766F72207573616C
:102DE0007220656C206D616E75616C2C20656C20A5
:102DF0006361706974756C6F2046697273742073B7
:102E0000746570732C2073656C656363696F6E20E5
:102E100043616C6962726174696F6E20666C6F7772
:102E20002E005374616D70616E746520616E636F06
:102E30007261206E6F6E2063616C69627261746191
:102E40002E20536920707265676120646920736564
:102E5000677569726520696C206D616E75616C655E
:102E60002C2063617069746F6C6F205052494D491A
:102E70002050415353492C2073657A696F6E652049
:102E800064656C6C612063616C696272617A696F00
:102E90006E652E005469736B61726E61206E65629F
:102EA000796C61206A65737465207A6B616C696204
:102EB000726F76616E612E20506F73747570756AD3
:102EC00074652070726F73696D20706F646C65201B
:102ED0006D616E75616C752C206B617069746F6CBF
:102EE00061205A6163696E616D652C206F64737433
:102EF0006176656320506F73747570206B616C69C7
:102F000062726163652E005072696E74657220682A
:102F10006173206E6F74206265656E2063616C69F9
:102F2000627261746564207965742E20506C6561ED
:102F3000736520666F6C6C6F7720746865206D61B7
:102F40006E75616C2C2063686170746572204669CF
:102F50007273742073746570732C20736563746965
:102F60006F6E2043616C6962726174696F6E206676
:102F70006C6F772E0050727A65706C797700466CB2
:102F8000756A6F00466C7573736F00507275746F5D
:102F90006B00466C6F7700207A2034002064652037
:102FA0003400207375203400207A203400206F66AE
:102FB000203400537A756B616D2070756E6B74757B
:102FC000206B616C6962726163796A6E65676F20FC
:102FD000706F646B6C61646B690042757363616EE2
:102FE000646F2063616D612070756E746F2064651D
:102FF0002063616C6962726163696F6E005269631C
:10300000657263612064656C206C6574746F2070F8
:10301000756E746F2064692063616C696272617A95
:103020002E00486C6564616D206B616C6962726131
:10303000636E6920626F6420706F646C6F7A6B7965
:1030400000536561726368696E672062656420631E
:10305000616C6962726174696F6E20706F696E7401
:1030600000446F6E6520736176696E672066696CD7
:10307000652E00446F6E65207072696E74696E67AC
:103080002066696C6500437A79206B6F6C6F7220E3
:103090006A65737420637A797374793F004573208D
:1030A000656C206E7565766F20636F6C6F72206E35
:1030B000697469646F3F00496C20636F6C6F72655F
:1030C000206527206E697469646F3F004A6520623D
:1030D000617276612063697374613F004973206394
:1030E0006F6C6F7220636C6561723F0057796D6918
:1030F000656E69632066696C616D656E740043611D
:103100006D626961722066696C616D656E746F00D5
:1031100043616D622E2066696C616D656E746F002F
:1031200056796D656E69742066696C616D656E7443
:10313000004368616E67652066696C616D656E74D9
:1031400000507265646B6F73632077656E742E0038
:1031500056656E74696C61646F720056656C6F635E
:103160006974612076656E746F6C61005279636872
:103170006C6F73742076656E742E0046616E2073DA
:103180007065656400656E717565696E6720220003
:103190002045787465726E616C20526573657400A9
:1031A0005072696E7465722073746F7070656420FC
:1031B00064756520746F206572726F72732E20467D
:1031C000697820746865206572726F7220616E6420
:1031D00020757365204D39393920746F20726573FD
:1031E000746172742E202854656D706572617475F7
:1031F00072652069732072657365742E205365743F
:1032000020697420616674657220726573746172DE
:1032100074696E6729004E6F204C696E65204E758B
:103220006D626572207769746820636865636B738B
:10323000756D2C204C617374204C696E653A2000CA
:103240004E6F20436865636B73756D207769746892
:10325000206C696E65206E756D6265722C204C6104
:103260007374204C696E653A200020746F6F206C77
:103270006F6E6720657874727573696F6E207072F7
:103280006576656E746564004C696E65204E756D7B
:10329000626572206973206E6F74204C61737420B4
:1032A0004C696E65204E756D6265722B312C204C19
:1032B000617374204C696E653A20005072696E74B7
:1032C00065722068616C7465642E206B696C6C2873
:1032D000292063616C6C6564210020636F6C64203D
:1032E000657874727573696F6E2070726576656E3D
:1032F00074656400636865636B73756D206D6973D5
:103300006D617463682C204C617374204C696E6528
:103310003A2000424C41443A004552524F52453AFD
:103320000043485942413A004552524F523A0045F3
:103330006E642066696C65206C697374006F7065DB
:103340006E0054524947474552454400656E6473C8
:10335000746F7073206869743A20005265706F73DF
:103360006F2E2E2E00536F7370656E73696F6E65CE
:103370002E2E2E00536C6565702E2E2E0057796C04
:1033800061637A79632073696C6E696B690041705F
:1033900061676172206D6F746F7265730044697349
:1033A0006162696C6974206D6F746F72690056791F
:1033B000706E6F7574206D6F746F727900446973ED
:1033C00061626C6520737465707065727300204370
:1033D0006F756E7420583A200057796D69616E617F
:1033E000206F6B3F0043616D626961646F20636FA2
:1033F000727265632E3F0043616D626961746F2074
:10340000636F72722E3F0056796D656E61206F6B2F
:103410003F004368616E67656420636F7272656325
:10342000746C793F00577963686C6F647A696300E4
:10343000456E6672696172005261666672656464A7
:1034400061005A63686C6164697400436F6F6C64F7
:103450006F776E00446C61207072617769646C2EC6
:10346000206B616C69627261636A692070726F734C
:103470007A65206F637A7973636963206479737AFC
:10348000652E20506F74772E2067757A696B696599
:103490006D2E004C696D7069617220626F71756983
:1034A0006C6C6120706172612063616C6962726131
:1034B00063696F6E2E20436C69636B206375616E68
:1034C000646F206163616265732E0050756C697270
:1034D00065206C277567656C6C6F20706572206C59
:1034E000612063616C696272617A696F6E652C201C
:1034F000706F69206661726520636C69636B2E0072
:1035000050726F2075737065736E6F75206B616C90
:10351000696272616369206F6369737465746520A1
:1035200070726F73696D207469736B6F766F75203D
:10353000747279736B752E20506F74767264746533
:1035400020746C616369746B656D2E00506C6561ED
:10355000736520636C65616E20746865206E6F7A98
:103560007A6C6520666F722063616C696272617447
:10357000696F6E2E20436C69636B207768656E20DF
:10358000646F6E652E004F626120776F7A6B6920E1
:10359000646F6A656368616C7920646F20676F721D
:1035A0006E656A2072616D793F00436172726F735C
:1035B000205A20697A712E2F6465722E20657374EB
:1035C000616E20617272696261206D6178696D6FF0
:1035D0003F00492063617272656C6C69205A2073E8
:1035E000696E2F64657320736F6E6F20616C7465F4
:1035F0007A7A61206D61783F00446F6A656C79204A
:103600006F6261205A20766F7A696B79206B7E68D1
:103610006F726E696D7520646F72617A753F0041DB
:103620007265206C65667420616E642072696768DB
:1036300074205A7E63617272696167657320616C80
:103640006C2075703F00204C61737420557064616C
:103650007465643A200057796D69616E61206F6B03
:10366000210043616D62696172206269656E2100AB
:1036700043616D62696F20726975736369746F214C
:10368000005A6D656E612075737065736E612100FF
:103690004368616E676520737563636573732100AA
:1036A0004472756B207A205344004D656E7520641A
:1036B00065205344005374616D7061206461205330
:1036C00044005469736B207A205344005072696E31
:1036D000742066726F6D20534400526573657420C8
:1036E0006B616C6962722E2058595A00526573657D
:1036F000742058595A206B616C6962722E005265B1
:103700007365742058595A2063616C6962722E0087
:103710004B616C69627261636A612058595A004357
:10372000616C696272612058595A0043616C696228
:1037300072612058595A004B616C6962726163650D
:103740002058595A0043616C69627261746520584F
:10375000595A002042726F776E206F75742052653F
:1037600073657400426567696E2066696C65206CDC
:10377000697374004B616C69627261636A6120589D
:10378000595A206E6965646F6B6C61646E612E209E
:103790004C6577792070727A65646E692070756EF9
:1037A0006B74207A62797420777973756E696574A9
:1037B0007920646F2070727A6F64752E0043616C9B
:1037C000696272617A696F6E2058595A20636F6D11
:1037D00070726F6D65746964612E2050756E746FC0
:1037E0002064656C616E7465726F20697A717569A9
:1037F0006572646F206E6F20616C63616E7A6162C6
:103800006C652E0043616C696272617A696F6E65E6
:103810002058595A20636F6D70726F6D65737361B4
:103820002E2050756E746F20616E746572696F72B0
:10383000652073696E697374726F206E6F6E20728B
:1038400061676769756E676962696C652E004B61B7
:103850006C6962726163652058595A206E65707296
:1038600065736E612E204C65767920707265646E8A
:103870006920626F64206D6F632076707265647575
:103880002E0058595A2063616C6962726174696FC5
:103890006E20636F6D70726F6D697365642E204C5E
:1038A0006566742066726F6E742063616C69627203
:1038B0006174696F6E20706F696E74206E6F742012
:1038C000726561636861626C652E004B616C696250
:1038D000722E2058595A206E6965646F6B6C616452
:1038E0006E612E2050727A65646E69652070756E07
:1038F0006B7479206B616C6962722E205A627974E4
:10390000207779732E20646F2070727A6F64752E21
:103910000043616C696272617A696F6E2058595A0E
:1039200020636F6D70726F6D65746964612E2050D5
:10393000756E746F2064656C616E7465726F732050
:103940006E6F20616C63616E7A61626C65732E00CC
:1039500043616C696272617A696F6E652058595A69
:1039600020636F6D70726F6D657373612E2050757B
:103970006E746920616E746572696F7269206E6F12
:103980006E207261676769756E676962696C692E1E
:10399000004B616C6962726163652058595A206EF0
:1039A00065707265736E612E20507265646E692059
:1039B0006B616C69627261636E6920626F64792009
:1039C0006D6F63207670726564752E0058595A20A9
:1039D00063616C6962726174696F6E20636F6D7090
:1039E000726F6D697365642E2046726F6E7420630A
:1039F000616C6962726174696F6E20706F696E7458
:103A000073206E6F7420726561636861626C652EED
:103A1000004B616C69627261636A612058595A2077
:103A20007072617769646C6F77612E204F7369657E
:103A300020582F59206C656B6B6F20736B6F736E02
:103A4000652E20446F62726120726F626F74612113
:103A50000043616C6962726163696F6E2058595AE4
:103A600020636F7272656374612E204C6F732065E2
:103A70006A65732058202F205920657374616E2069
:103A80006C69676572616D656E746520696E636CE3
:103A9000696E61646F732E204275656E2074726169
:103AA00062616A6F210043616C696272617A696F59
:103AB0006E2058595A20636F7272657474612E209B
:103AC0004173736920582F59206C65676765726D63
:103AD000656E74652073746F7274692E2042656E12
:103AE00020666174746F21004B616C69627261635E
:103AF000652058595A207620706F7261646B752E5C
:103B000020582F59206F7379206D69726E65207A65
:103B10006B6F73656E652E20446F627261207072E8
:103B2000616365210058595A2063616C6962726152
:103B300074696F6E20616C6C2072696768742E20E6
:103B4000582F5920617865732061726520736C6904
:103B50006768746C7920736B657765642E20476F96
:103B60006F64206A6F6221004B616C6962726163ED
:103B70006A612058595A207072617769646C6F7756
:103B8000612E20536B6F73792062656461206175CB
:103B9000746F6D617479637A6E6965207779726F7D
:103BA000776E616E652070727A79206472756B75BC
:103BB0002E0043616C6962726163696F6E205859AF
:103BC0005A20636F7272656374612E204C612069A4
:103BD0006E636C696E6163696F6E20736520636FDD
:103BE00072726567697261206175746F6D61746965
:103BF00063616D656E74652E0043616C696272610C
:103C00007A696F6E2058595A20636F7272657474A6
:103C1000612E204C6120646973746F7273696F6EDA
:103C20006520766572726127206175746F6D6174AD
:103C30006963616D656E746520636F6D70656E7329
:103C40006174612E004B616C69627261636520581A
:103C5000595A207620706F7261646B752E205A6BF2
:103C60006F73656E692062756465206175746F6D30
:103C7000617469636B79207679726F766E616E6FAD
:103C800020707269207469736B752E0058595A2020
:103C900063616C6C6962726174696F6E20616C6CD7
:103CA0002072696768742E20536B65772077696C82
:103CB0006C20626520636F72726563746564206155
:103CC00075746F6D61746963616C6C792E004B6102
:103CD0006C6962722E2058595A206E69657564614C
:103CE0006E612E204B616C6962726163796A6E79D4
:103CF0002070756E6B7420706F646B6C61646B699F
:103D0000206E69657A6E616C657A696F6E792E00D6
:103D100043616C6962726163696F6E2058595A2001
:103D200066616C6C6164612E2050756E746F7320D7
:103D300064652063616C6962726163696F6E20659E
:103D40006E206C612063616D61206E6F20656E6313
:103D50006F6E747261646F732E0043616C6962727E
:103D6000617A696F6E652058595A2066616C6C697A
:103D700074612E20496C2070756E746F2064692008
:103D800063616C696272617A696F6E652073756CCC
:103D9000206C6574746F206E6F6E206527207374BD
:103DA00061746F2074726F7661746F2E004B616C5A
:103DB0006962726163652058595A2073656C686145
:103DC0006C612E204B616C69627261636E69206266
:103DD0006F6420706F646C6F7A6B79206E656E61B2
:103DE0006C657A656E2E0058595A2063616C696261
:103DF000726174696F6E206661696C65642E204221
:103E000065642063616C6962726174696F6E2070B1
:103E10006F696E7420776173206E6F7420666F75A2
:103E20006E642E004B616C69627261636A61205836
:103E3000595A206F6B2E204F73696520582F5920D7
:103E400073612070726F73746F7061646C652E2083
:103E500047726174756C61636A65210043616C69C6
:103E600062726163696F6E2058595A206F6B2E2001
:103E7000456A657320582F592070657270656E64AD
:103E80006963756C617265732E2046656C69636940
:103E9000746163696F6E6573210043616C6962725E
:103EA000617A696F6E652058595A204F4B2E204712
:103EB0006C69206173736920582F5920736F6E6F7E
:103EC0002070657270656E6469636F6C6172692ED3
:103ED00020436F6D706C696D656E746921004B6174
:103EE0006C6962726163652058595A207620706F40
:103EF0007261646B752E20582F59206F7379206A78
:103F0000736F75206B6F6C6D652E204772617475D1
:103F10006C756A69210058595A2063616C69627234
:103F20006174696F6E206F6B2E20582F5920617855
:103F30006573206172652070657270656E64696377
:103F4000756C61722E20436F6E67726174756C615F
:103F500074696F6E7321004B616C69627261636A90
:103F6000612058595A206E6965706F776965647A67
:103F7000696F6E612E205370726177647A69632075
:103F80007720696E737472756B636A692E00436182
:103F90006C6962726163696F6E2058595A2066615C
:103FA0006C6C6164612E20436F6E73756C7461720A
:103FB00020656C206D616E75616C20706F7220667B
:103FC00061766F722E0043616C696272617A696F0B
:103FD0006E652058595A2066616C6C6974612E2098
:103FE000536920707265676120646920636F6E7326
:103FF000756C7461726520696C206D616E75616CA1
:10400000652E004B616C6962726163652058595A74
:104010002073656C68616C612E204E61686C65640C
:104020006E65746520646F206D616E75616C752EB0
:104030000058595A2063616C6962726174696F6ECD
:10404000206661696C65642E20506C656173652023
:10405000636F6E73756C7420746865206D616E7526
:10406000616C2E004B616C6962722E2058595A2087
:104070006E69657564616E612E204C65777920707C
:10408000727A65646E692070756E6B74207A6279DD
:104090007420646F2070727A6F64752E2057797265
:1040A0006F776E6163206472756B61726B652E0051
:1040B00043616C6962726163696F6E2058595A205E
:1040C00066616C6C61642E2050756E746F2064653F
:1040D0006C616E7465726F20697A7175696572645E
:1040E0006F206E6F20616C63616E7A61626C652E09
:1040F0000043616C696272617A696F6E652058591C
:104100005A2066616C6C6974612E2050756E746FF4
:1041100020616E746572696F72652073696E697370
:1041200074726F206E6F6E207261676769756E675B
:104130006962696C652E004B616C696272616365CE
:104140002058595A2073656C68616C612E204C654B
:10415000767920707265646E6920626F64206D6F7D
:1041600063207670726564752E2053726F766E656B
:104170006A7465207469736B61726E752E0058598C
:104180005A2063616C6962726174696F6E20666146
:10419000696C65642E204C6566742066726F6E745F
:1041A0002063616C6962726174696F6E20706F69FF
:1041B0006E74206E6F7420726561636861626C65F5
:1041C0002E004B616C6962722E2058595A206E691C
:1041D000657564616E612E2050727A65642E207060
:1041E000756E6B7479206B616C6962722E207A62D5
:1041F000797420646F2070727A6F64752E205779FD
:10420000726F776E6163206472756B61726B652E7D
:104210000043616C6962726163696F6E2058595A1C
:104220002066616C6C61642E2050756E746F206422
:10423000656C616E7465726F73206E6F20616C6364
:10424000616E7A61626C65732E0043616C696272A3
:10425000617A696F6E652058595A2066616C6C6985
:1042600074612E2050756E746920616E7465726978
:104270006F7269206E6F6E207261676769756E6715
:104280006962696C692E004B616C69627261636579
:104290002058595A2073656C68616C612E205072E9
:1042A00065646E69206B616C69627261636E69201E
:1042B000626F6479206D6F63207670726564752E0D
:1042C0002053726F766E656A7465207469736B61D2
:1042D000726E752E0058595A2063616C6962726162
:1042E00074696F6E206661696C65642E2046726F1A
:1042F0006E742063616C6962726174696F6E2070A4
:104300006F696E7473206E6F74207265616368618B
:10431000626C652E004B616C69627261636A612038
:104320006E69657564616E612E2053656E736F7280
:10433000206F646C61637A6F6E79206C7562207592
:10434000737A6B6F647A2E206B6162656C2E2043EA
:104350007A656B616D206E612072657365742E00E5
:104360004E6976656C6163696F6E2066616C6C6125
:1043700064612E2053656E736F7220646573636F82
:104380006E65637461646F206F206361626C657336
:104390002064616E61646F732E2045737065726175
:1043A0006E646F2072657365742E004C6976656C5F
:1043B0006C616D656E746F206C6574746F206661DE
:1043C0006C6C69746F2E2053656E736F7265206418
:1043D0006973636F6E2E206F204361766F20446196
:1043E0006E6E2E20496E206174746573612064695D
:1043F0002072657365742E004B616C696272616333
:1044000065205A2073656C68616C612E2053656E5F
:10441000736F72206A65206F64706F6A656E7920B1
:104420006E65626F20707265727573656E79206B50
:104430006162656C2E2043656B616D206E61207238
:10444000657365742E00426564206C6576656C69E1
:104450006E67206661696C65642E2053656E736FAC
:104460007220646973636F6E6E6563746564206F38
:1044700072206361626C652062726F6B656E2E20C4
:1044800057616974696E6720666F72207265736523
:10449000742E004B616C69627261636A61206E699F
:1044A000657564616E612E2053656E736F72206E48
:1044B000696520646F746B6E616C2E205A616E6941
:1044C00065637A79737A2E206479737A613F204329
:1044D0007A656B616D206E612072657365742E0064
:1044E0004E6976656C6163696F6E2066616C6C61A4
:1044F00064612E2053656E736F72206E6F20667537
:104500006E63696F6E612E204573636F6D62726FAB
:104510007320656E20426F7175692E3F2045737060
:104520006572616E646F2072657365742E004C69EC
:1045300076656C6C616D656E746F206C6574746FFC
:104540002066616C6C69746F2E4E6F526973705384
:10455000656E736F72205265736964756920737537
:10456000207567656C6C6F3F20496E2061747465BF
:1045700073612064692072657365742E004B616CF1
:10458000696272616365205A2073656C68616C6151
:104590002E2053656E736F72206E657365706E7535
:1045A0006C2E205A6E6563697374656E6120747237
:1045B00079736B613F2043656B616D206E61207282
:1045C000657365742E00426564206C6576656C6960
:1045D0006E67206661696C65642E2053656E736F2B
:1045E00072206469646E7420747269676765722EE4
:1045F00020446562726973206F6E206E6F7A7A6CE8
:10460000653F2057616974696E6720666F7220721A
:10461000657365742E004B616C69627261636A61D7
:10462000205A206E69657564616E612E2053656E37
:10463000736F7220646F746B2E207A6120777973A8
:104640006F6B6F2E20437A656B616D206E612072F7
:10465000657365742E004E6976656C6163696F6E73
:104660002066616C6C6164612E2053656E736F729D
:104670002066756E63696F6E612064656D61736934
:1046800061646F2074656D7072616E6F2E2045736A
:10469000706572616E646F2072657365742E004C74
:1046A0006976656C6C616D656E746F206C65747491
:1046B0006F2066616C6C69746F2E52697370207321
:1046C000656E736F72652074726F70706F20707298
:1046D0006573746F496E20617474657361206469D9
:1046E0002072657365742E004B616C696272616340
:1046F00065205A2073656C68616C612E2053656E6D
:10470000736F72207365706E756C207072696C695E
:1047100073207679736F6B6F2E2043656B616D200C
:104720006E612072657365742E00426564206C654D
:1047300076656C696E67206661696C65642E2053CE
:10474000656E736F72207472696767657265642045
:10475000746F6F20686967682E2057616974696E8D
:104760006720666F722072657365742E0047727AD7
:10477000616E69652073746F6C696B612E2E0042E7
:104780006173652043616C656E74616E646F005285
:10479000697363616C642E206C6574746F005A6178
:1047A00068726976616E69206265640042656420A2
:1047B00048656174696E670053746F6C696B204F54
:1047C0004B2E0042617365206C6973746F2E00502C
:1047D000696174746F20666174746F2E0042656441
:1047E000204F4B2E0042656420646F6E6500572099
:1047F000707261776F205B756D5D004465726563F3
:1048000068612020205B756D5D004C61746F2064D1
:10481000657374726F20756D0056707261766F20CB
:104820005B756D5D0052696768742073696465200B
:10483000756D00526573657400446F2074796C75F2
:1048400020205B756D5D0041747261732020202013
:10485000205B756D5D004C61746F20706F737465C3
:1048600072696F726500567A61647520205B756DA0
:104870005D005265617220736964652020756D006A
:104880004B6F72656B746120706F646B6C61646BED
:104890006900436F72722E206465206C6120636131
:1048A0006D6100436F7272657A2E206C69762E6C92
:1048B0006574746F004B6F72656B636520706F6415
:1048C0006C6F7A6B7900426564206C6576656C204C
:1048D000636F72726563740057206C65776F202078
:1048E0005B756D5D00497A71756965726461205B05
:1048F000756D5D004C61746F2073696E69737472BD
:104900006F20756D00566C65766F20205B756D5D50
:10491000004C65667420736964652020756D0044E1
:104920006F2070727A6F6475205B756D5D004164F5
:10493000656C616E746520205B756D5D004C617403
:104940006F2061746572696F726520756D005670B5
:1049500072656475205B756D5D0046726F6E7420C4
:104960007369646520756D0053746F6C696B0042E8
:10497000617365004C6574746F00426564004F6438
:104980006C65676C6F7363206479737A79206F64E8
:1049900020706F646B6C61646B69206E6965206A5E
:1049A00065737420736B616C6962726F77616E619D
:1049B0002E20506F73746570756A207A676F646E0D
:1049C0006965207A20696E737472756B636A612001
:1049D000726F7A647A69616C205A61637A796E6168
:1049E0006D792C20706F64726F7A647A69616C20C3
:1049F0004B616C69627261636A612070696572778C
:104A0000737A656A20776172737477792E004469CE
:104A10007374616E63696120656E747265206C6188
:104A20002070756E7461206465206C6120626F7106
:104A300075696C6C612079206C612073757065728A
:104A40006669636965206465206C612063616D61DE
:104A5000206E6F2066696A6164612061756E2E2028
:104A6000506F72206661766F72207369676120658E
:104A70006C206D616E75616C2C206361706974755A
:104A80006C6F2046697273742073746570732C2088
:104A900073656363696F6E204669727374206C611D
:104AA0007965722063616C6962726174696F6E2EE0
:104AB0000044697374616E7A6120747261206C6164
:104AC0002070756E74612064656C6C277567656C09
:104AD0006C6F2065206C6120737570657266696308
:104AE00069652064656C206C6574746F206E6F6EF0
:104AF00020616E636F726120696D706F7374612ED7
:104B0000205369207072656761206469207365674E
:104B10007569726520696C206D616E75616C652CBC
:104B20002063617069746F6C6F20466972737420C2
:104B300073746570732C2073657A696F6E65204697
:104B400069727374206C617965722063616C69624B
:104B5000726174696F6E2E004E656E69207A6B61AA
:104B60006C6962726F76616E6120767A64616C65E1
:104B70006E6F737420747279736B79206F64207414
:104B800069736B6F766520706F646C6F7A6B792ECA
:104B900020506F73747570756A74652070726F73CE
:104BA000696D20706F646C65206D616E75616C75E8
:104BB0002C206B617069746F6C61205A6163696E3F
:104BC000616D652C206F64737461766563204E613E
:104BD00073746176656E69207072766E6920767284
:104BE000737476792E0044697374616E6365206214
:104BF00065747765656E20746970206F66207468CF
:104C000065206E6F7A7A6C6520616E6420746865C9
:104C100020626564207375726661636520686173E4
:104C2000206E6F74206265656E20736574207965EF
:104C3000742E20506C6561736520666F6C6C6F77A5
:104C400020746865206D616E75616C2C20636861ED
:104C50007074657220466972737420737465707322
:104C60002C2073656374696F6E20466972737420BB
:104C70006C617965722063616C6962726174696FDD
:104C80006E2E00446F7374726F6A656E6965206F73
:104C90007379205A004D6963726F7061736F205A87
:104CA00000436F6D70656E73617A696F6E65205A2F
:104CB00000446F6C6164656E69206F7379205A00DF
:104CC0004C6976652061646A757374205A0041648A
:104CD0006A757374696E67205A004C6C65766172F0
:104CE00020616C206F726967656E0054726F766127
:104CF000206F726967696E65004175746F20686F17
:104D00006D6500207C20417574686F723A20004107
:104D100063746976652045787472756465723A20AB
:104D200000CB0BBF0BAF0BA00B900BDB0BE30BEB24
:104D30000BF40BFC0B120C0E0C0B0C080C040C16D9
:104D40000C1E0C260C660C5C0C4D0C410C360C3405
:104D50000D0C0DD30CA10C720C7B0D7B0D690D5746
:104D60000D7B0DCE0DBD0DAB0D9B0D8C0D260E14C8
:104D70000E020EEF0DDE0D390E6A0E640E5D0E553D
:104D80000E4C0E810E810E810E810E6F0EA50EA5AA
:104D90000EA50EA50E930EE20EDA0ECE0EC20EB6C4
:104DA0000EFC0EF40EFC0EFC0EEE0E420F340F2520
:104DB0000F130F040F5F0F5F0F540F4D0F5F0F693D
:104DC0000FBD0FAF0F9D0F8E0F7D0F15100310F449
:104DD0000FE30FD00F64105610451035102610AB9E
:104DE000109E108D107F107210F010E310D710C9B4
:104DF00010BC10FD104D1144113B113111281153FD
:104E000011AB1199118711751163110012EE11E1A7
:104E100011CF11BD11551244123412221212128DEB
:104E200012831276126F126412D812C912B812A627
:104E300012961204130413F512E512041349133ADF
:104E4000132E13231316136413641358136413647B
:104E500013B113A213951383137113CD13CD13C67E
:104E600013CD13BF13F713F713E513D313F7133051
:104E70001428142314131409146E146414581445BC
:104E8000143914C614B514A0148C147B141515030E
:104E900015F214E114CF14761561154C153B152746
:104EA00015A915A91597158715A915DE15DE15CCB9
:104EB00015BA15DE1508160816FA15EE1508162689
:104EC0001626161C16111626167E1669165416433B
:104ED000162E16D516C316B316A1168F162D171B30
:104EE000170B17F916E71685177317631751173F36
:104EF00017DB17C917B917A91797173618241811F0
:104F000018FF17ED178B1879186A185A184818D90E
:104F100018C718B918AF189D180A190A19FB18EB09
:104F2000180A19291929192019171929193B194D76
:104F30001960199F199119861975196819AC19BE4C
:104F400019D2191B1A0D1A011AF019E219291A3669
:104F50001A441A521A681A731A861ADE1ACF1ABF1E
:104F60001AAD1A9C1A251B1A1B0A1BF91AED1A32C4
:104F70001B5D1B4C1B5D1B5D1B3B1B911B801B9119
:104F80001B911B6F1BB91BAE1BB91BB91BA31BF2DB
:104F90001BE41BD41BF21BC51B4C1C371C231C120F
:104FA0001C001CA41C901C801C6E1C5F1CE21CD8E6
:104FB0001CCC1CC01CB81CEA1C1E1D0F1D071D00AC
:104FC0001DF21C2A1D7F1D6F1D601D4F1D411D12EE
:104FD0001E8B1D121E121E121EA81EAB1ED01ED02E
:104FE0001EBE1EAF1ED01E131F041FF91EE71ED9C2
:104FF0001E381F311F2A1F241F1E1F831F701F5E94
:105000001F4E1F3F1FD91FC81FB81FA91F971FF092
:105010001FED1FF01FF01FE91F42202D201D20084B
:1050200020F31FCD20B2208A206F205220142109A6
:10503000210121F920ED20422137212F2127211B99
:1050400021702165215D21552149219021902180E8
:1050500021772190211F23C9225D22FA2199210C59
:1050600025B4244624E1237E2399258C25812576A9
:10507000256D25B525B525A325B525B525F525EB44
:1050800025DE25D225C725172612260C2606260141
:1050900026E226B9267D2651261D264C273D272DA2
:1050A000271E271227512768277F279627AF278893
:1050B000289F28B6280829F528E628D928CD285879
:1050C000294829372927291529A9299629852977A2
:1050D000296629F829EA29D929CA29BA29432A3669
:1050E0002A252A132A062A732A6B2A622A5A2A5345
:1050F0002A952A952A8C2A7B2A952A9E2AF62AE620
:105100002AD32AC12AAF2A1C2B172B112B0B2B06B3
:105110002BBE2B9A2B732B4F2B222B102C042CF7EE
:105120002BEA2BDE2B582C4B2C3B2C2C2C1E2C969C
:105130002C892C7F2C742C692CE02CD22CC02CAE0A
:105140002CA22C222D182D072DF92CEE2C2A2D0700
:105150002F942E222EAE2D392D922F8B2F842F7E21
:105160002F752FAD2FA82FA22F9C2F972F413022C4
:1051700030FD2FDA2FB32F61307330DC30CC30B7F5
:10518000309D308630313120311031FE30EC307BB3
:10519000316C315B315031413185319031A0311664
:1051A0003240326A328832BB32DA32F4322833216A
:1051B000331933283313332F333D3342334C337495
:1051C00033743365335B337433BD33AE339D338E09
:1051D000337D33CE3312340734F733E533D9334BD1
:1051E0003442343834303425344C350035CB3493A4
:1051F0003454341F36F935D235AA358635463690C3
:10520000368136703662365636CC36C236B536AA58
:1052100036A036FE36EC36FE36FE36DA3645373701
:10522000372B371F3710375337643782384E3804DF
:1052300038BD377437CC39913950391139CB3825CD
:105240003BE83AA63A513A113A8C3C453CF93BB21C
:105250003B683BE73DAD3D5A3D103DCE3C163FDE41
:105260003E9A3E5C3E243E31400340C63F8E3F574F
:105270003F7E413741F140B0406440D54287424AC9
:10528000421142C2414644F843AB4360431543C612
:10529000457D452E45E04493442A47E8469F4656BF
:1052A000461646AC479E478F477F476D47E547DD2B
:1052B00047CF47C347B847254819480A48FB47EE38
:1052C00047334872486648564847483948C648B543
:1052D00048A3489248804811490549F448E548D810
:1052E000485A494E493D492E491F497A497A4974DD
:1052F000496F496849E64B584BB14A0E4A7E49C04E
:105300004CB14CA14C954C834CCE4CF94CF94CEB28
:105310004CDA4CF94C034D0F4D457872656D6520A4
:105320007370616E206F6620746865205A20766104
:105330006C7565732100626F74746F6D00746F70AB
:105340000000506F696E7420686569676874207426
:105350006F6F20736D616C6C3A20007269676874BE
:10536000006C6566740000506F696E742077696424
:10537000746820746F6F20736D616C6C3A2000004C
:105380002C20003A200046696E616C2063616C63DA
:10539000756C617465642062656420706F696E74F9
:1053A000200043616C63756C6174696F6E206F6679
:1053B00020746865206D616368696E6520736B6534
:1053C0007720616E64206F6666736574206661691C
:1053D0006C65642E00002C20003A200046696E6146
:1053E0006C206D6561737572656420626564207000
:1053F0006F696E74200000206661696C65642E2000
:105400004C6F776572696E67207A20746F20002C6C
:1054100020697465726174696F6E2000496D7072E5
:105420006F76696E672062656420706F696E7420A4
:1054300000002C207A002C20697465726174696FF9
:105440006E2000496D70726F76696E6720626564C8
:1054500020706F696E742000417420592D34004112
:105460007420593000002C20002C200020004D65B5
:105470006173757265642000002C200041646A75B8
:105480007374656420706F736974696F6E3A20007D
:10549000002C20683A002C20646D61783A0050613D
:1054A000727469616C20706F696E742065737469C1
:1054B0006D617465642072616469757320746F6FC7
:1054C00020736D616C6C3A200000506172746961E8
:1054D0006C20706F696E74206469616D65746572AB
:1054E00020746F6F20736D616C6C3A2000746F7064
:1054F000007269676874006C656674007269676839
:1055000074006C65667400746F70006661696C6528
:1055100064202D206E6F7420666F756E640A0072B1
:1055200069676874006C65667400002C2000496E21
:10553000697469616C20706F736974696F6E3A2069
:1055400000417420592D3400417420593000496EB7
:1055500076616C69642062656420636F7272656352
:1055600074696F6E206D61747269782E2052657354
:10557000657474696E6720746F206964656E746900
:1055800074792E00496E76616C69642062656420CE
:10559000636F7272656374696F6E206D6174726996
:1055A000782E20582F59206178657320617265200C
:1055B0006661722066726F6D206265696E67207029
:1055C000657270656E646963756C61722E00496EF8
:1055D00076616C69642062656420636F72726563D2
:1055E00074696F6E206D61747269782E20536869DA
:1055F0006674206F7574206F662072616E67652E09
:1056000000496E76616C69642062656420636F7224
:1056100072656374696F6E206D61747269782E2093
:105620004C656E677468206F66207468652058202A
:10563000766563746F72206F7574206F6620726177
:105640006E67652E00496E76616C696420626564E0
:1056500020636F7272656374696F6E206D6174721E
:1056600069782E204C656E677468206F66207468B8
:1056700065205820766563746F72206F7574206F93
:10568000662072616E67652E0000292C206572729B
:105690006F723A20002C2000293B207461726765EC
:1056A000743A2028002C2000293B206D6561737519
:1056B0007265642D636F727265637465643A202845
:1056C000002C20006D656173757265643A202800B6
:1056D000706F696E74202300446966666572656E3A
:1056E000636520616674657220636F7272656374AE
:1056F000696F6E3A2000002C200063656E7465723D
:105700002C2061646A75737465643A2000002C2053
:10571000005920766563746F722C2061646A75731A
:105720007465643A2000002C20005820766563746C
:105730006F722C2061646A75737465643A20005638
:10574000657279206C6974746C6520736B65772061
:1057500064657465637465642E204F7274686F6746
:105760006F6E616C697A696E672074686520617814
:1057700065732E0000292C206572726F723A20002A
:105780002C2000293B207461726765743A20280040
:105790002C2000293B20636F727265637465643A44
:1057A0002028002C2000206D656173757265643AB5
:1057B000202800706F696E742023004572726F722A
:1057C00020616674657220636F7272656374696FBD
:1057D0006E3A2000002C200063656E746572206EA6
:1057E00065772C20696E7665727465643A200000D6
:1057F0002C20005920766563746F72206E65772CBB
:1058000020696E7665727465643A2000002C200071
:105810005820766563746F72206E65772C20696EF0
:105820007665727465643A2000002C2000636F7204
:1058300072656374696F6E20616E676C65733A2080
:1058400000002C2000636F727265637465642061D0
:105850006E676C65733A2000002C2000636F7272D3
:10586000656374656420782F793A2000002C20004D
:105870002C20002C2000636F7272656374696F6E58
:1058800020766563746F723A200069746572617482
:10589000696F6E3A200000292C206572726F723A8F
:1058A00020002C2000293B207461726765743A2027
:1058B00028002C2000206D656173757265643A20A4
:1058C0002800706F696E74202300002C200063652F
:1058D0006E7465722C20696E697469616C3A20007F
:1058E000002C20005920766563746F722C20696E3D
:1058F000697469616C3A2000002C2000582076659C
:1059000063746F722C20696E697469616C3A20004F
:105910000000E442FCFFFFBF000057430000C0420C
:105920000000E44200004243000040410000C04249
:1059300000004041FCFFFFBF0000E442FCFFFFBF4E
:1059400000005743FCFFFFBF000057430000C04268
:105950000000E4420000C042000040410000C0429C
:1059600000004041000042430000E4420000424386
:1059700000005743000042435A00205A3A005900A1
:1059800020593A00580020583A0024F4D43050C32B
:105990008E20C2A24017828B7011127A910D816CF9
:1059A000D90AA861E108C7586607615143061E4B32
:1059B0005D05C145A7041A411104093D98037139D9
:1059C00031034036DB0265339102D4305402802E1D
:1059D0001D02632CEE01752AC501B028A001102715
:1059E00081018F2564012B244B01E0223401AC217D
:1059F0001F018D200D01801FFC00841EED00971DEE
:105A0000DF00B81CD200E61BC600201BBC00641AD5
:105A1000B200B219A8000A19A0006A189900D1179B
:105A2000910040178B00B516840031167E00B31527
:105A300079003A157300C7146F0058146A00EE130A
:105A400066008813630025135E00C7125B006C12AA
:105A5000570015125400C111510070114F0021114F
:105A60004B00D61049008D1047004610440002102C
:105A70004200C00F4000800F3E00420F3C00060F66
:105A80003B00CB0E3800930E37005C0E3500270E1E
:105A90003400F30D3200C10D3100900D3000600D67
:105AA0002E00320D2D00050D2C00D90C2B00AE0C54
:105AB0002900850C29005C0C2700350C27000E0CF2
:105AC0002600E80B2400C40B2400A00B23007D0B50
:105AD00023005A0B2100390B2100180B2000F80A73
